{
  "_format": "hh-sol-artifact-1",
  "contractName": "Lottery",
  "sourceName": "contracts/Lottery.sol",
  "abi": [
    {
      "inputs": [
        {
          "internalType": "address",
          "name": "vrfCoordinatorV2",
          "type": "address"
        },
        {
          "internalType": "bytes32",
          "name": "_gasLane",
          "type": "bytes32"
        },
        {
          "internalType": "uint64",
          "name": "_subscriptionId",
          "type": "uint64"
        },
        {
          "internalType": "uint32",
          "name": "_callbackGasLimit",
          "type": "uint32"
        },
        {
          "internalType": "uint256",
          "name": "_interval",
          "type": "uint256"
        },
        {
          "internalType": "uint256",
          "name": "_entranceFee",
          "type": "uint256"
        }
      ],
      "stateMutability": "nonpayable",
      "type": "constructor"
    },
    {
      "inputs": [],
      "name": "Lottery__NOT_OPENED",
      "type": "error"
    },
    {
      "inputs": [],
      "name": "Lottery__TransferFailed",
      "type": "error"
    },
    {
      "inputs": [],
      "name": "Lottery__UpkeepNotNeeded",
      "type": "error"
    },
    {
      "inputs": [],
      "name": "Lottery__notEnoughETHSend",
      "type": "error"
    },
    {
      "inputs": [
        {
          "internalType": "address",
          "name": "have",
          "type": "address"
        },
        {
          "internalType": "address",
          "name": "want",
          "type": "address"
        }
      ],
      "name": "OnlyCoordinatorCanFulfill",
      "type": "error"
    },
    {
      "anonymous": false,
      "inputs": [
        {
          "indexed": true,
          "internalType": "address",
          "name": "player",
          "type": "address"
        }
      ],
      "name": "LotteryEnter",
      "type": "event"
    },
    {
      "anonymous": false,
      "inputs": [
        {
          "indexed": true,
          "internalType": "uint256",
          "name": "requestId",
          "type": "uint256"
        }
      ],
      "name": "RequestLotteryWinner",
      "type": "event"
    },
    {
      "anonymous": false,
      "inputs": [
        {
          "indexed": true,
          "internalType": "address",
          "name": "recentWinner",
          "type": "address"
        }
      ],
      "name": "WinnerPicked",
      "type": "event"
    },
    {
      "inputs": [
        {
          "internalType": "bytes",
          "name": "",
          "type": "bytes"
        }
      ],
      "name": "checkUpkeep",
      "outputs": [
        {
          "internalType": "bool",
          "name": "upkeepNeeded",
          "type": "bool"
        },
        {
          "internalType": "bytes",
          "name": "",
          "type": "bytes"
        }
      ],
      "stateMutability": "nonpayable",
      "type": "function"
    },
    {
      "inputs": [],
      "name": "enterLottery",
      "outputs": [],
      "stateMutability": "payable",
      "type": "function"
    },
    {
      "inputs": [],
      "name": "entranceFee",
      "outputs": [
        {
          "internalType": "uint256",
          "name": "",
          "type": "uint256"
        }
      ],
      "stateMutability": "view",
      "type": "function"
    },
    {
      "inputs": [],
      "name": "interval",
      "outputs": [
        {
          "internalType": "uint256",
          "name": "",
          "type": "uint256"
        }
      ],
      "stateMutability": "view",
      "type": "function"
    },
    {
      "inputs": [],
      "name": "lastTimestamp",
      "outputs": [
        {
          "internalType": "uint256",
          "name": "",
          "type": "uint256"
        }
      ],
      "stateMutability": "view",
      "type": "function"
    },
    {
      "inputs": [],
      "name": "lotteryState",
      "outputs": [
        {
          "internalType": "enum Lottery.LotteryState",
          "name": "",
          "type": "uint8"
        }
      ],
      "stateMutability": "view",
      "type": "function"
    },
    {
      "inputs": [
        {
          "internalType": "bytes",
          "name": "",
          "type": "bytes"
        }
      ],
      "name": "performUpkeep",
      "outputs": [],
      "stateMutability": "nonpayable",
      "type": "function"
    },
    {
      "inputs": [
        {
          "internalType": "uint256",
          "name": "",
          "type": "uint256"
        }
      ],
      "name": "players",
      "outputs": [
        {
          "internalType": "address payable",
          "name": "",
          "type": "address"
        }
      ],
      "stateMutability": "view",
      "type": "function"
    },
    {
      "inputs": [
        {
          "internalType": "uint256",
          "name": "requestId",
          "type": "uint256"
        },
        {
          "internalType": "uint256[]",
          "name": "randomWords",
          "type": "uint256[]"
        }
      ],
      "name": "rawFulfillRandomWords",
      "outputs": [],
      "stateMutability": "nonpayable",
      "type": "function"
    },
    {
      "inputs": [],
      "name": "recentWinner",
      "outputs": [
        {
          "internalType": "address",
          "name": "",
          "type": "address"
        }
      ],
      "stateMutability": "view",
      "type": "function"
    }
  ],
  "bytecode": "0x6101206040523480156200001257600080fd5b5060405162001698380380620016988339818101604052810190620000389190620001a9565b858073ffffffffffffffffffffffffffffffffffffffff1660808173ffffffffffffffffffffffffffffffffffffffff1660601b81525050508573ffffffffffffffffffffffffffffffffffffffff1660a08173ffffffffffffffffffffffffffffffffffffffff1660601b815250508460c081815250508367ffffffffffffffff1660e08167ffffffffffffffff1660c01b815250508263ffffffff166101008163ffffffff1660e01b815250506000600260146101000a81548160ff0219169083600181111562000110576200010f620002b1565b5b021790555042600381905550816004819055508060008190555050505050505062000367565b6000815190506200014781620002e5565b92915050565b6000815190506200015e81620002ff565b92915050565b600081519050620001758162000319565b92915050565b6000815190506200018c8162000333565b92915050565b600081519050620001a3816200034d565b92915050565b60008060008060008060c08789031215620001c957620001c8620002e0565b5b6000620001d989828a0162000136565b9650506020620001ec89828a016200014d565b9550506040620001ff89828a0162000192565b94505060606200021289828a016200017b565b93505060806200022589828a0162000164565b92505060a06200023889828a0162000164565b9150509295509295509295565b6000620002528262000263565b9050919050565b6000819050919050565b600073ffffffffffffffffffffffffffffffffffffffff82169050919050565b6000819050919050565b600063ffffffff82169050919050565b600067ffffffffffffffff82169050919050565b7f4e487b7100000000000000000000000000000000000000000000000000000000600052602160045260246000fd5b600080fd5b620002f08162000245565b8114620002fc57600080fd5b50565b6200030a8162000259565b81146200031657600080fd5b50565b620003248162000283565b81146200033057600080fd5b50565b6200033e816200028d565b81146200034a57600080fd5b50565b62000358816200029d565b81146200036457600080fd5b50565b60805160601c60a05160601c60c05160e05160c01c6101005160e01c6112d9620003bf600039600061040d015260006103ea015260006103c90152600061038d01526000818161024c01526102a001526112d96000f3fe6080604052600436106100915760003560e01c80636939864b116100595780636939864b146101695780636e04ff0d14610194578063947a36fb146101d2578063c1af5785146101fd578063f71d96cb1461020757610091565b806319d8ac61146100965780631fe543e3146100c15780634585e33b146100ea5780634f8c70cf14610113578063649677e11461013e575b600080fd5b3480156100a257600080fd5b506100ab610244565b6040516100b89190610f04565b60405180910390f35b3480156100cd57600080fd5b506100e860048036038101906100e39190610cb3565b61024a565b005b3480156100f657600080fd5b50610111600480360381019061010c9190610bc3565b61030a565b005b34801561011f57600080fd5b506101286104d5565b6040516101359190610e07565b60405180910390f35b34801561014a57600080fd5b506101536104fb565b6040516101609190610f04565b60405180910390f35b34801561017557600080fd5b5061017e610501565b60405161018b9190610ee9565b60405180910390f35b3480156101a057600080fd5b506101bb60048036038101906101b69190610c10565b610514565b6040516101c9929190610e66565b60405180910390f35b3480156101de57600080fd5b506101e76105a3565b6040516101f49190610f04565b60405180910390f35b6102056105a9565b005b34801561021357600080fd5b5061022e60048036038101906102299190610c59565b6106fa565b60405161023b9190610e22565b60405180910390f35b60035481565b7f000000000000000000000000000000000000000000000000000000000000000073ffffffffffffffffffffffffffffffffffffffff163373ffffffffffffffffffffffffffffffffffffffff16146102fc57337f00000000000000000000000000000000000000000000000000000000000000006040517f1cf993f40000000000000000000000000000000000000000000000000000000081526004016102f3929190610e3d565b60405180910390fd5b6103068282610739565b5050565b600061032460405180602001604052806000815250610514565b5090508061035e576040517f35ae29b400000000000000000000000000000000000000000000000000000000815260040160405180910390fd5b6001600260146101000a81548160ff02191690836001811115610384576103836111b9565b5b021790555060007f000000000000000000000000000000000000000000000000000000000000000073ffffffffffffffffffffffffffffffffffffffff16635d3b1d307f00000000000000000000000000000000000000000000000000000000000000007f000000000000000000000000000000000000000000000000000000000000000060037f000000000000000000000000000000000000000000000000000000000000000060016040518663ffffffff1660e01b815260040161044e959493929190610e96565b602060405180830381600087803b15801561046857600080fd5b505af115801561047c573d6000803e3d6000fd5b505050506040513d601f19601f820116820180604052508101906104a09190610c86565b9050807feddaba8a57dcfd3a637ac76edea7af81443028e0bd6e6cb23bd210a4a85ba85660405160405180910390a250505050565b600260009054906101000a900473ffffffffffffffffffffffffffffffffffffffff1681565b60005481565b600260149054906101000a900460ff1681565b600060606000600260149054906101000a900460ff16600181111561053c5761053b6111b9565b5b600060018111156105505761054f6111b9565b5b1490506000600454600354426105669190610fc8565b119050600080600180549050119050600080471190508380156105865750825b801561058f5750815b80156105985750805b955050505050915091565b60045481565b6000543410156105e5576040517fbd3d9eea00000000000000000000000000000000000000000000000000000000815260040160405180910390fd5b600060018111156105f9576105f86111b9565b5b600260149054906101000a900460ff16600181111561061b5761061a6111b9565b5b14610652576040517f3768711d00000000000000000000000000000000000000000000000000000000815260040160405180910390fd5b6001339080600181540180825580915050600190039060005260206000200160009091909190916101000a81548173ffffffffffffffffffffffffffffffffffffffff021916908373ffffffffffffffffffffffffffffffffffffffff1602179055503373ffffffffffffffffffffffffffffffffffffffff167f1d64fb5ba9f2548c5b98468d58f25b87b9e866afee0122e92d9fe722bf85076c60405160405180910390a2565b6001818154811061070a57600080fd5b906000526020600020016000915054906101000a900473ffffffffffffffffffffffffffffffffffffffff1681565b600060018054905082600081518110610755576107546111e8565b5b6020026020010151610767919061112a565b905060006001828154811061077f5761077e6111e8565b5b9060005260206000200160009054906101000a900473ffffffffffffffffffffffffffffffffffffffff16905080600260006101000a81548173ffffffffffffffffffffffffffffffffffffffff021916908373ffffffffffffffffffffffffffffffffffffffff160217905550600067ffffffffffffffff81111561080857610807611217565b5b6040519080825280602002602001820160405280156108365781602001602082028036833780820191505090505b506001908051906020019061084c92919061098e565b506000600260146101000a81548160ff02191690836001811115610873576108726111b9565b5b0217905550426003819055506000600260009054906101000a900473ffffffffffffffffffffffffffffffffffffffff1673ffffffffffffffffffffffffffffffffffffffff16476040516108c790610df2565b60006040518083038185875af1925050503d8060008114610904576040519150601f19603f3d011682016040523d82523d6000602084013e610909565b606091505b5050905080610944576040517f1c94012000000000000000000000000000000000000000000000000000000000815260040160405180910390fd5b8173ffffffffffffffffffffffffffffffffffffffff167f5b690ec4a06fe979403046eaeea5b3ce38524683c3001f662c8b5a829632f7df60405160405180910390a25050505050565b828054828255906000526020600020908101928215610a07579160200282015b82811115610a065782518260006101000a81548173ffffffffffffffffffffffffffffffffffffffff021916908373ffffffffffffffffffffffffffffffffffffffff160217905550916020019190600101906109ae565b5b509050610a149190610a18565b5090565b5b80821115610a31576000816000905550600101610a19565b5090565b6000610a48610a4384610f44565b610f1f565b90508083825260208201905082856020860282011115610a6b57610a6a611250565b5b60005b85811015610a9b5781610a818882610b99565b845260208401935060208301925050600181019050610a6e565b5050509392505050565b6000610ab8610ab384610f70565b610f1f565b905082815260208101848484011115610ad457610ad3611255565b5b610adf8482856110b7565b509392505050565b600082601f830112610afc57610afb61124b565b5b8135610b0c848260208601610a35565b91505092915050565b60008083601f840112610b2b57610b2a61124b565b5b8235905067ffffffffffffffff811115610b4857610b47611246565b5b602083019150836001820283011115610b6457610b63611250565b5b9250929050565b600082601f830112610b8057610b7f61124b565b5b8135610b90848260208601610aa5565b91505092915050565b600081359050610ba88161128c565b92915050565b600081519050610bbd8161128c565b92915050565b60008060208385031215610bda57610bd961125f565b5b600083013567ffffffffffffffff811115610bf857610bf761125a565b5b610c0485828601610b15565b92509250509250929050565b600060208284031215610c2657610c2561125f565b5b600082013567ffffffffffffffff811115610c4457610c4361125a565b5b610c5084828501610b6b565b91505092915050565b600060208284031215610c6f57610c6e61125f565b5b6000610c7d84828501610b99565b91505092915050565b600060208284031215610c9c57610c9b61125f565b5b6000610caa84828501610bae565b91505092915050565b60008060408385031215610cca57610cc961125f565b5b6000610cd885828601610b99565b925050602083013567ffffffffffffffff811115610cf957610cf861125a565b5b610d0585828601610ae7565b9150509250929050565b610d188161100e565b82525050565b610d2781610ffc565b82525050565b610d3681611020565b82525050565b610d458161102c565b82525050565b6000610d5682610fa1565b610d608185610fac565b9350610d708185602086016110c6565b610d7981611264565b840191505092915050565b610d8d816110a5565b82525050565b6000610da0600083610fbd565b9150610dab82611275565b600082019050919050565b610dbf81611049565b82525050565b610dce81611077565b82525050565b610ddd81611081565b82525050565b610dec81611091565b82525050565b6000610dfd82610d93565b9150819050919050565b6000602082019050610e1c6000830184610d1e565b92915050565b6000602082019050610e376000830184610d0f565b92915050565b6000604082019050610e526000830185610d1e565b610e5f6020830184610d1e565b9392505050565b6000604082019050610e7b6000830185610d2d565b8181036020830152610e8d8184610d4b565b90509392505050565b600060a082019050610eab6000830188610d3c565b610eb86020830187610de3565b610ec56040830186610db6565b610ed26060830185610dd4565b610edf6080830184610dd4565b9695505050505050565b6000602082019050610efe6000830184610d84565b92915050565b6000602082019050610f196000830184610dc5565b92915050565b6000610f29610f3a565b9050610f3582826110f9565b919050565b6000604051905090565b600067ffffffffffffffff821115610f5f57610f5e611217565b5b602082029050602081019050919050565b600067ffffffffffffffff821115610f8b57610f8a611217565b5b610f9482611264565b9050602081019050919050565b600081519050919050565b600082825260208201905092915050565b600081905092915050565b6000610fd382611077565b9150610fde83611077565b925082821015610ff157610ff061115b565b5b828203905092915050565b600061100782611057565b9050919050565b600061101982611057565b9050919050565b60008115159050919050565b6000819050919050565b600081905061104482611278565b919050565b600061ffff82169050919050565b600073ffffffffffffffffffffffffffffffffffffffff82169050919050565b6000819050919050565b600063ffffffff82169050919050565b600067ffffffffffffffff82169050919050565b60006110b082611036565b9050919050565b82818337600083830152505050565b60005b838110156110e45780820151818401526020810190506110c9565b838111156110f3576000848401525b50505050565b61110282611264565b810181811067ffffffffffffffff8211171561112157611120611217565b5b80604052505050565b600061113582611077565b915061114083611077565b9250826111505761114f61118a565b5b828206905092915050565b7f4e487b7100000000000000000000000000000000000000000000000000000000600052601160045260246000fd5b7f4e487b7100000000000000000000000000000000000000000000000000000000600052601260045260246000fd5b7f4e487b7100000000000000000000000000000000000000000000000000000000600052602160045260246000fd5b7f4e487b7100000000000000000000000000000000000000000000000000000000600052603260045260246000fd5b7f4e487b7100000000000000000000000000000000000000000000000000000000600052604160045260246000fd5b600080fd5b600080fd5b600080fd5b600080fd5b600080fd5b600080fd5b6000601f19601f8301169050919050565b50565b60028110611289576112886111b9565b5b50565b61129581611077565b81146112a057600080fd5b5056fea26469706673582212203b4e0097aafb745673ec0bc6ea55797453c6f4b4cb1a40bcc7f873a53e185cb964736f6c63430008070033",
  "linkReferences": {},
  "deployedLinkReferences": {}
}